:020000040800F2
:10000000F80C0020A901000843320008BF2D0008A9
:1000100041320008B7130008D93C00080000000076
:10002000000000000000000000000000813800080F
:10003000FB13000800000000153700088338000893
:10004000C3010008C3010008C3010008C301000880
:10005000C3010008C3010008C3010008C301000870
:10006000C3010008C3010008C3010008C301000860
:10007000C3010008C3010008C3010008C301000850
:10008000B9130008C5130008C3010008C301000824
:10009000C3010008C3010008C3010008C301000830
:1000A000C3010008C3010008C3010008C301000820
:1000B000C3010008C3010008C3010008C301000810
:1000C000C3010008C3010008C3010008C301000800
:1000D000C3010008C3010008CD3C0008C3010008AB
:1000E000C3010008C3010008C301000800F002F8C2
:1000F00000F04AF80AA090E8000C82448344AAF178
:100100000107DA4501D100F03FF8AFF2090EBAE875
:100110000F0013F0010F18BFFB1A43F0010318473B
:10012000C04F0000E04F0000103A24BF78C878C1EB
:10013000FAD8520724BF30C830C144BF04680C60ED
:10014000704700000023002400250026103A28BF35
:1001500078C1FBD8520728BF30C148BF0B60704739
:10016000662904F05F84642900F052800020704703
:100170001FB500F0E3FB04000020002103F01CFF8A
:10018000E0601FBD10B510BD00F0D8FC1146FFF7B0
:10019000EFFF03F095FE00F0F6FC03B4FFF7F2FF6B
:1001A00003BC00F039FD00000948804709480047BA
:1001B000FEE7FEE7FEE7FEE7FEE7FEE7FEE7FEE717
:1001C000FEE7FEE704480549054A064B7047000074
:1001D000E5380008ED000008F8060020F80C0020C3
:1001E000F8080020F80800200FB41CB5074B06AA39
:1001F0007B4469460090059800F087FB0020694623
:1002000000F096FB1CBC5DF814FB00003D070000ED
:100210002DE9F0410646002410687529314616A5DF
:1002200010D0AFF30080002802DA404213A507E0A7
:1002300031688A0701D512A502E0490704D511A546
:10024000012401E0AFF3008000210A2206F1240717
:1002500009E0B0FBF2FCB0FBF2F302FB1C00303013
:1002600078541846491C0028F3D123462A463046C4
:10027000BDE8F04100F0DBB8000000002D000000F8
:100280002B000000200000002DE9F0474FF0000A8D
:1002900089460446C0F820A02046E1688847002827
:1002A00076D0252806D0D4E901219047206A401C49
:1002B0002062F1E7E168204600258847C4F81CA0C9
:1002C00006460027C4F818A02A2E09D0304603F0AD
:1002D000EFFD38B304EB8708303EC8F8186019E02A
:1002E00059F8041B204604EB87029161E1688847B6
:1002F000012F064618D1E069002820DA25F02005F4
:100300001DE0D8F8180000EB800006EB4000303804
:10031000C8F818002046E1688847064603F0C8FD83
:100320000028EED1012F0AD02E2E08D12046E168F8
:1003300088477F1C0646022F45F02005C4DBA069D4
:10034000002803DA404245F00105A061E80701D02A
:1003500025F01005B6B1A6F14100192802D82036C3
:1003600045F400654A463146204625604D46FFF774
:10037000F7FE58B1012806D0ED1D25F0070000F169
:10038000080989E704E005F1040985E730468AE7B2
:10039000206ABDE8F0874FF000020429C0F0128007
:1003A00010F0030C00F01B80CCF1040CBCF1020F28
:1003B00018BF00F8012BA8BF20F8022BA1EB0C01FD
:1003C00000F00DB85FEAC17C24BF00F8012B00F8F3
:1003D000012B48BF00F8012B70474FF0000200B519
:1003E000134694469646203922BFA0E80C50A0E858
:1003F0000C50B1F12001BFF4F7AF090728BFA0E806
:100400000C5048BF0CC05DF804EB890028BF40F8D1
:10041000042B08BF704748BF20F8022B11F0804F13
:1004200018BF00F8012B70477047704770472DE9DF
:10043000F0470D4699469246044600F124080168AB
:10044000880604D5E06921F01001216000E0012058
:10045000A84201DD471B00E00027A1697A1902EBE1
:100460000900081AA0612078C00602D42046AFF324
:100470000080002608E0D4E901211AF80600904720
:10048000206A401C761C20624E45F4DB2078C006B2
:100490000AD52046AFF3008006E0D4E901213020E0
:1004A0009047206A401C2062381EA7F10107F4DC47
:1004B00007E0D4E9012118F805009047206A401CA4
:1004C0002062281EA5F10105F3DC2046AFF3008071
:1004D0002078000602D50220BDE8F0870120FBE766
:1004E00070472DE9FF4F0C461E464FF0FF378BB08B
:1004F000D2E90001DDF860800A908A46C1F30A550E
:1005000005B93D46002108464FF00000BAF1000F42
:1005100000F4400005DA00EB80004FF4400101EAEE
:1005200050004FEA9059B9F1010F00DDB9460A9821
:1005300050EA4A000ED044F61050A5F2FF3545436C
:100540002F14B8F1000F1ED07542291E1EDDC9F10F
:1005500000021CE0B8F1010F4FF0000001D0302183
:1005600003E0F24305E02154401CB042FBDB30467F
:100570000022002121540B99C1F80880C1E9002014
:100580000FB0BDE8F08FBD1B6D1CDEE74A4600DAF8
:10059000694206A800F05CFA06AB93E8070003ABDB
:1005A00083E8070050460A9900F03DFB8DE80700FC
:1005B000A0F500501F3800900398002D0ADD42F28C
:1005C0001F014A460844002303A90390684600F02F
:1005D000A6FD09E0A0F500504A461F38002303A9F4
:1005E0000390684600F0B0FD8DE807000004000CA1
:1005F00003D04FF0FF30410800E01046B8F1000F83
:1006000003D00022009215461EE0751E05D400F0AE
:1006100099F9303262556D1EF9D5B346012208436F
:1006200002D000227F1C04E02078302801D1002273
:100630007F1E002A099784D01DE0112D07DA00F0F3
:1006400081F9303262556D1C50EA0102F5D1084340
:1006500002D00098C8B10EE00021681E05E0235CBE
:10066000625C63542254401E491C8142F7DBAB4656
:10067000A81B401E0990002004F80B000B98099A53
:10068000C0F80880C0E9002B7AE711264FF0000877
:1006900057E72DE9F04F88460446D21D22F00701A6
:1006A00091B0D1E90001CDE90A0103F0DDFB02467A
:1006B0000B98C00F01D02D2007E02068810701D5DD
:1006C0002B2002E0202101EAC000032A099001D07A
:1006D000072A05DB03464146204600F079F90BE185
:1006E0002078800601D5E06900E00620B8F1650FAA
:1006F000814606D0B8F1660F18D0B8F1670F70D1F7
:1007000031E00020B9F1110F009001DB112301E06D
:1007100009F101030AAA01A90CA8FFF7E2FEDDE92D
:100720000C70002609F10105834647E001204B4685
:1007300000904FF000470AAA01A90CA8FFF7D1FECC
:10074000DDE90DB00C995D46002610B909F10100F4
:100750000D18B9EB050003D4C0F1FF3609F101050E
:10076000A5EB09002BE0B9F1010F01DA4FF0010907
:100770000020B9F1110F0090484601DD112300E07F
:1007800003460AAA01A90CA8FFF7ABFEDDE90C702D
:100790004D4600268346207800070AD4AB4500DA90
:1007A0005D4601A8012D04DD411911F8011C302915
:1007B00007D04F4502DA17F1040F04DA0120824610
:1007C0000FE06D1EEEE7002F02DCED1B3E4403E060
:1007D000781CA84200DD7D1CB81B00F1010A4FF017
:1007E00000472078000703D4AA4501DB4FF0FF3A09
:1007F0000021B7F1004F0DF143088DF8431024D0CC
:1008000002202B23002F01DA7F422D230A21021E12
:10081000A0F1010000DC5FB197FBF1FC97FBF1F266
:1008200001FB1C7C17460CF1300C08F801CDEEE7FB
:10083000A8F1010003702188090501D5452100E0D8
:100840006521A0F1010800F8011C09980FA9A1EB8E
:100850000807FF1D00B10120411901EBEA70A169F1
:100860003844081A401EA0612078C00602D42046F1
:10087000AFF30080099828B1D4E901219047206A9C
:10088000401C20622078C00622D52046AFF30080AD
:100890001EE0002E04DBB34502DD01A8805D00E010
:1008A0003020D4E901219047206A401C2062761C48
:1008B000AAF101005FEA000A0AD100F03FF8C0681F
:1008C0000168405CD4E901219047206A401C206205
:1008D000281EA5F10105DCDC07E0D4E9012118F8A8
:1008E000010B9047206A401C2062381EA7F10107C7
:1008F000F3DC2046AFF30080032011B041E6000096
:1009000001694A1C02610878704700B58FB0CDE9D3
:1009100001310021059105497944CDE903101146C3
:100920006846FFF7B1FC0FB000BD0000E5FFFFFF18
:100930000A6802F8010B0A6070470000004870471F
:10094000B406002030B5B0F10A024FEA900E71F102
:1009500000034EEA817EB0EB0E0061EB91014FEA9D
:10096000101E4EEA017E10EB0E0041EB11114FEA12
:10097000102E4EEA016E10EB0E0041EB11214FEAF2
:10098000104E4EEA014E10EB0E0041EB11414018A3
:1009900041F100014FEAD00040EA41704FEAD10135
:1009A00010EB80054FEA810444EA907444EB0104A3
:1009B0006D1944EB0404521BA3414FF0000348BFE0
:1009C0000A3200D530BD401C41F1000130BD0000AD
:1009D0002DE9F0411F46044603260168072A01F469
:1009E000006004DB08B116A505E016A503E008B118
:1009F00015A500E015A521F010002060A069C01E1B
:100A0000A0610FB1401EA0612046AFF300804FB13E
:100A1000D4E9012138469047206A401C2062C01C5E
:100A2000206206E0206AFAE7D4E9012115F8010BFB
:100A30009047761EF8D22046AFF30080BDE8F081E3
:100A40004E414E006E616E00494E4600696E660072
:100A50002DE9F047814616468AB0354878440DC8DE
:100A60008DE80D0032487844801C03AC0DC884E842
:100A70000D0041F69B300844372190FBF1F290FBCA
:100A8000F1F5A5F1800501FB12041B3C02D564427F
:100A9000012000E00020DFF898A080460027FA44FB
:100AA000AAF1BE0A0EE0E0070AD03246684607EB1C
:100AB000470101230AEB810100F046FB8DE80700A6
:100AC00064107F1C002CEED1194F7F44AE3F19E01B
:100AD000E80715D007EB04100DF1180A90E80E0096
:100AE0008AE80E00C068F04201D198190890324699
:100AF000012306A903A800F027FB03AB83E8070046
:100B00006D10641C002DE3D14FF00103324669469D
:100B1000B8F1000F03A802D000F001FB01E000F0E3
:100B200013FBC9E90001C9F808200AB0BDE8F08745
:100B30006846000000487047940600207546FFF79D
:100B4000F9FFAE4605006946534620F0070085468A
:100B500018B020B5FFF736FBBDE820404FF0000687
:100B60004FF000074FF000084FF0000B21F0070195
:100B7000AC46ACE8C009ACE8C009ACE8C009ACE8D8
:100B8000C0098D46704710B50446AFF3008020467B
:100B9000BDE81040FFF701BB4FF0013C50F8042BBB
:100BA00051F8043B9A4221D1A2EB0C03934313EA80
:100BB000CC1317D150F8042B51F8043B9A4215D1AD
:100BC000A2EB0C03934313EACC130BD150F8042B84
:100BD00051F8043B9A4209D1A2EB0C03934313EA68
:100BE000CC13DBD04FF00000704700BFD01A01BA21
:100BF000B1FA81F101F0180122FA01F0CB40C1F104
:100C00002001DBB2C0B2C01A2CFA01F3D11A914311
:100C100011EAC311E6D1704701491820ABBEFEE7C7
:100C20002600020070475FEA400C08BF91F0000FF9
:100C30004FEA8C234FEAC12243EA51514FEA1C503C
:100C400018BF00F5F0404FEA300018BF41F00041F6
:100C50005FEA6C5C00F02980BCF1FF3F08BF40F008
:100C600080407047130C06BF12044FF0100C4FF079
:100C7000000C130E04BF12020CF1080C130F04BF7A
:100C800012010CF1040C930F04BF92000CF1020C42
:100C9000D30F04BF52000CF1010C11464FF00002BB
:100CA000A0F11F00A0EB0C00704711F0004F08BF2F
:100CB000704731F000413FF4D5AF0B0C06BF09047B
:100CC0004FF0100C4FF0000C0B0E04BF09020CF19A
:100CD000080C0B0F04BF09010CF1040C8B0F04BFAF
:100CE00089000CF1020CCB0F04BF49000CF1010C80
:100CF000CCF12003A0EB0C0022FA03F302FA0CF271
:100D000041EA030100F10100704720F07F4C80EAC6
:100D1000030023F07F47ACEB070303F57C5300F09F
:100D2000004003F1FF032DE980494FEA154B09B458
:100D30004FEA144325EA0B4E24EA03480FF2042637
:100D400006EB132749083E785FEA320203FB066789
:100D5000C7F5000707FB06F64FEA54374FEAD646B9
:100D600006F1020607FB066CCCF1005C4FEA1C475B
:100D70002CEA074C07FB06F40CFB06F504EB1546C2
:100D80004FEA961634BF00204FF000404FEAD137AB
:100D900006FB07FC4FEA1C4C0CFB0BF7D21B03FBBA
:100DA0000CF761EB07010CFB0EF7B0EB074072EBA1
:100DB00017420CFB08F734BFA2EB0742B2EB074225
:100DC00061EB17414FEA0C444FEA910706FB07FC21
:100DD0004FEA1C4C0CFB0BF7B0EBC74072EB5732E1
:100DE00003FB0CF734BFA2EBC742B2EBC74261EB87
:100DF00057310CFB0EF7B0EBC70072EB57720CFBD0
:100E000008F734BFA2EBC702B2EBC70261EB577120
:100E1000039F4FEA816141EA921104EBCC044FEA4F
:100E2000D1374FEA826206FB07FC42EA90124FEA92
:100E300080604FEA1C4C0CFB0BF7D21B03FB0CF73A
:100E400061EB07010CFB0EF7B0EB074072EB1742AA
:100E50000CFB08F734BFA2EB0742B2EB074261EB91
:100E600017414FEA8C554FEA910704EB9C2406FB8F
:100E700007FC4FEA1C4C0CFB0BF7B0EBC74072EBC6
:100E8000573203FB0CF734BFA2EBC742B2EBC742A9
:100E900061EB57310CFB0EF7B0EBC70072EB5772EA
:100EA0000CFB08F734BFA2EBC702B2EBC70261EB41
:100EB000577115EB4C254FEA816141EA92114FEAD7
:100EC00082624FEAD13742EA901206FB07FC44F1F6
:100ED00000044FEA80604FEA1C4C0CFB0BF7D21B5E
:100EE00003FB0CF761EB07010CFB0EF7B0EB0740BF
:100EF00072EB17420CFB08F734BFA2EB0742B2EBD0
:100F0000074261EB174115EB1C154FEA813141EAAD
:100F100092414FEA823242EA90424FEA80304FEAF1
:100F20000C7644F1000448EA03434EEA0B484FF0C4
:100F3000000EB2EB080C71EB030724BF6246394682
:100F40004EEB0E0E4FF0000B0018524149414BEB97
:100F50000B0BB2EB080C71EB03077BF1000B24BF0A
:100F6000624639464EEB0E0E4FF0000B0018524110
:100F700049414BEB0B0BB2EB080C71EB03077BF118
:100F8000000B24BF624639464EEB0E0E51EA0207B3
:100F900018BF46F0010616EB0E7655F1000254F12B
:100FA000000103D5BDE88901BDE80088BDE88901DD
:100FB000BDE80048B619524141EB0101A3F101031C
:100FC000704780807F7E7D7C7B7A797877767675B6
:100FD0007473727171706F6E6E6D6C6C6B6A6A692E
:100FE0006868676666656464636362616160605FC8
:100FF0005F5E5E5D5D5C5C5B5B5A5A595958585741
:1010000057565655555554545353525252515150A8
:1010100050504F4F4F4E4E4D4D4D4C4C4C4B4B4BFB
:101020004A4A4A4949494848484747474746464641
:10103000454545444444444343434342424242417C
:101040004141002B9C4630D477002BD01CB54FEA91
:10105000370703B44FF010004FF01001BAF1000F42
:1010600006D0BCF1000FDCBF40F0080040F00801E2
:101070004FF000000FBCBDE810400BF1010BBBF1BD
:10108000010F08BF5FEA170722BF12F1010211F139
:1010900001014FF0004143F1000300F0004043EA3A
:1010A00000007047F9D35708D0E746EA064613F127
:1010B000400F4FEA16461FDD13F1200FDFBF164326
:1010C0000A46002120335B42BED0C3F1200746EA26
:1010D000064602FA07F74FEA164646EA0706C3F144
:1010E000200722FA03F201FA07F721FA03F14FF081
:1010F000000342EA0702A7E746EA020646EA064676
:101100004FEA164646EA0106BCBF46EA0646360CDA
:101110004FF000034FF000024FF0000194E72DE97B
:10112000804C9A46934670B491E8380007C831EA7B
:10113000400C48BF34EA430C03D5FFF7E6FDFFF748
:1011400080FFF0BCBDE8008C2DE9804C9A469346A8
:1011500070B491E8380007C810F0804F08BF13F052
:10116000804F03D100F005F8FFF76BFFF0BCBDE83E
:10117000008C20F07F4780EA030023F07F4C07EBD0
:101180000C03A3F57C5300F00040A3F1FE0392F0A2
:10119000000F00F0B38095F0000F00F077802DE98C
:1011A00001494FEA11404FEA144621EA004800FB8A
:1011B00006FC24EA064708FB06F607FB08F800FBD6
:1011C00007F718EB06484CEB164C4FEA124B18EB9E
:1011D00007484FEA15464CEB174022EA0B4E0BFB33
:1011E00006FC25EA06470EFB06F607FB0EFE0BFB88
:1011F00007F71EEB064E4CEB164C4FF000061EEBAD
:10120000074E4CEB174B18EB0B0840F1000018EBA6
:101210000E0B58EB000840F100008F1A4FF0000150
:101220003CBFC943661B14BFB5EB040C00213CBF97
:10123000C943F61B4FEA17444EEA8E0E27EA0445CF
:101240004FEA1C4704FB07622CEA074C05FB07F733
:101250000CFB05F604FB0CFC16EB074642EB1742B1
:1012600016EB0C4642EB1C421BEB060658EB020247
:10127000414146EA9E0601D5BDE80189B6195241B1
:1012800041EB0101A3F10103BDE801894FEA1445D7
:101290004FEA114724EA054621EA074C05FB07F40B
:1012A00006FB07F70CFB06F105FB0CFC11EB0741F5
:1012B00044EB17444FEA124711EB0C4144EB1C443A
:1012C00022EA074C05FB07F206FB07F70CFB06F6C4
:1012D00005FB0CFC16EB074642EB174216EB0C46DF
:1012E00042EB1C456A1854F1000148BF7047B6191B
:1012F000524141EB0101A3F10103704795F0000F4A
:1013000037D04FEA11424FEA144721EA024624EA55
:10131000074C02FB07F106FB07F70CFB06F402FB88
:101320000CFC14EB074441EB17414FEA154714EB53
:101330000C4441EB1C4125EA074C02FB07F506FB78
:1013400007F70CFB06F602FB0CFC16EB074645EB19
:10135000174516EB0C4645EB1C42121951F10001E2
:1013600048BF7047B619524141EB0101A3F1010397
:1013700070474FEA14454FEA114724EA054621EA2F
:10138000074C05FB07F106FB07F70CFB06F24FF0D5
:10139000000605FB0CFC12EB074241EB174112EB78
:1013A0000C4251EB1C4148BF7047921841EB0101C0
:1013B000A3F101037047FEE7014800F091B8000077
:1013C0000C020020014800F08BB800005002002001
:1013D00030B590F840500124AC40C56B6C60046897
:1013E00063604368102B036803D099600068C26093
:1013F00030BD9A600068C16030BD704772B6FEE7CC
:1014000010B590F821100022022905D00421816333
:1014100080F82020012010BD01680B6823F00E0326
:101420000B6001680B6823F001030B6090F84030FB
:10143000C46B012101FA03F3636080F8211080F886
:101440002020104610BD000010B590F82110002497
:10145000022903D00421816301243DE001680A6868
:1014600022F00E020A6001680A6822F001020A6096
:101470001A4A0168914201D1012121E0174A143230
:10148000914201D110211BE0144A2832914201D12E
:10149000891515E0114A3C32914201D189140FE0BF
:1014A0000E4A5032914202D14FF4803108E00B4A8B
:1014B0006432914202D14FF4801101E04FF080710B
:1014C000064A083A5160012180F82110002180F875
:1014D0002010416B01B18847204610BD0800024032
:1014E0002DE9F05FC16B0C6801680B68D0F840C053
:1014F000042202FA0CF2494DDFF824A1494E4A4F6A
:10150000DFF828B1DFF828E122422CD05A072AD58B
:101510000A68920603D40A6822F004020A6001688D
:10152000A94201D1042219E0514501D1402215E020
:10153000B14202D14FF4806210E0B94202D14FF4BF
:1015400080420BE0594502D14FF4802206E07145FC
:1015500002D14FF4800201E04FF080622F49083938
:101560004A60C16A3BE04FF0020808FA0CF818EA3A
:10157000040F4FF000094FF0010235D05FEA837885
:1015800032D50B689B0605D40B6823F00A030B6069
:1015900080F821200168A94201D1022219E05145B9
:1015A00001D1202215E0B14202D14FF4007210E0C7
:1015B000B94202D14FF400520BE0594502D14FF429
:1015C000003206E0714502D14FF4001201E04FF005
:1015D0000072124908394A6080F82090816A002917
:1015E0001AD0BDE8F05F0847082505FA0CF525423A
:1015F00012D01B0710D50B6823F00E030B6090F878
:101600004010C36B02FA01F15960826380F8212017
:1016100080F82090016BE2E7BDE8F09F08000240EF
:101620001C000240300002404400024058000240CA
:101630006C00024030B528B308C81349142219447D
:10164000B1FBF2F18900C163104981630221417746
:101650001A6843F6F0718A43D0E900142143D0E9B7
:1016600002452C4321430469214344692143846991
:101670002143114319600021416301224277017720
:10168000084630BD012030BDF8FFFDBF000002401C
:1016900070B5044690F82000002501280CD00120E8
:1016A00084F8200094F821600020012E06D084F8F0
:1016B00020000225284670BD022070BD022684F855
:1016C0002160A0632068066826F0010606602046B7
:1016D000FFF77EFEE06A00282068016802D041F032
:1016E0000E0106E021F0040101602068016841F06C
:1016F0000A0101602068016841F001010160D9E739
:1017000070B5044600F004F90546601C02D0044898
:101710000078044400F0FCF8401BA042FAD370BDEE
:10172000000000202DE9F84FDFF8B8910024A9F15E
:10173000040B23460F2709F1040AABF1040EC9E09C
:101740000125A5402A40AA427DD1674ED1F804C0A8
:10175000ACEB0608B44532D014DCBCF1030F3AD030
:1017600009DCBCF1000F2AD0BCF1010F1CD0BCF188
:10177000020F31D11DE0BCF1110F17D0BCF1120FD7
:101780002AD119E0B8F5881F19D006DCB8F5803FDA
:1017900015D0B8F5801F1FD111E0B8F5001F0ED08D
:1017A000B8F5041F18D10AE0CB6815E0CB681B1D03
:1017B00012E0CB6808330FE0CB680C330CE08B6889
:1017C0002BB1012B4FF0080303D0456104E0042343
:1017D00002E0056100E00023FF2A01D8064601E08F
:1017E00000F104064FEA840501D9A5F12005D6F8D9
:1017F000008007FA05FC28EA0C0803FA05F548EA18
:101800000508C6F800804D68ED0062D5374DAE6919
:1018100046F00106AE61AD6924F0030605F001054E
:101820000095334D06EB050CDCF80850A607360F83
:1018300007FA06F825EA0805DFF8B880404503D125
:101840004FF0000817E044E0DFF8AC80404502D1DB
:101850004FF001080FE0DFF8A480404502D14FF0BF
:10186000020808E0DFF89880404502D14FF00308F5
:1018700001E04FF0040808FA06F848EA0508CCF839
:1018800008804D68D9F80060ED024D4601D5164339
:1018900000E096432E604D68DAF80060AD025546D0
:1018A00001D5164300E096432E604D68DBF80060DA
:1018B000AD035D4601D5164300E096432E604D68AA
:1018C000DEF80060ED03754601D5164300E096434F
:1018D0002E60641C0D682A46E5407FF431AFBDE8F8
:1018E000F88F0000080401400000111000100240B1
:1018F0000000014000080140000C014000100140C0
:10190000001401400AB1016170470904FBE70000BF
:1019100001488068704700000000002070B5040096
:1019200025D094F83D00002520B984F83C5020468D
:1019300000F04EF9242084F83D002068016821F071
:10194000010101602068016841F4004101602068E4
:10195000016821F40041016000F0A0FA4D4A61687D
:10196000914201D84C4900E04C49884201D2012003
:1019700070BD4B492368B0FBF1F15E6826F03F066D
:101980000E435E606368934206D94FF496735943E1
:101990004FF47A73B1FBF3F12368491C1E6A26F0F9
:1019A0003F06314319626168914210D84900401ED8
:1019B000B0FBF1F2521CC2F30B02042A01D2042044
:1019C00022E0B0FBF1F0401CC0F30B001CE0A26869
:1019D000F2B301EBC10303EB0116431EB3FBF6F3B5
:1019E0005B1C43F480431B0549D092B301EBC10259
:1019F00002EB0111401EB0FBF1F0401CC0F30B00E4
:101A000040F4804040F400402168CA694CF6FF73FE
:101A10009A431043C861D4E9071001432068026863
:101A200022F0C00211430160D4E9030101432068A0
:101A3000826848F2FF339A4311438160D4E905017B
:101A400008432168CA6822F0FF021043C86001E021
:101A50000EE016E02068016841F001010160256494
:101A6000202084F83D00256384F83E50002070BD9E
:101A700001EB4106431EB3FBF6F35B1CB3E7012009
:101A8000C2E701EB4101401EB0FBF1F0401CC0F386
:101A90000B00B7E7A086010080841E0000093D000E
:101AA00040420F002DE9F84F1F4690468A460446F3
:101AB000DDF82890FFF72CFF054694F83D0020281C
:101AC0007FD11923012240492046009501F00AFAEE
:101AD000002876D194F83C00012872D0012084F8C7
:101AE0003C0020680168C90703D1016841F0010189
:101AF00001602068016821F400610160212084F800
:101B00003D00102084F83E0000262664C4F824809E
:101B10006785608D20852D48E0622B464A465146F8
:101B2000204601F065F990B920684169806900900C
:101B300036E02A464946204601F07AFA50B1206C38
:101B4000042804D12068016841F40071016001207B
:101B5000BDE8F88F606A216800780861606A401CFF
:101B60006062618D491E6185218D491E89B2218582
:101B700022685369DB435B070BD451B100781061D5
:101B8000606A401C6062608D401E6085208D401E32
:101B900020852A464946204601F078F90028CED112
:101BA000208D0028C5D154F83D0B016841F4007127
:101BB0000160202004F81E09E67766770020C7E759
:101BC000FFE70220C4E70000020010000000FFFF52
:101BD00010B586B000210091019102910391006837
:101BE0001349884222D1134CA06940F00800A0613B
:101BF000A069694600F0080004904FF4407000901E
:101C000012200190032003900B48FFF78BFD0B4837
:101C1000416841F0E06141F002014160E06940F457
:101C20000010E061E06900F40010049006B010BDFF
:101C30000054004000100240000C01400000014030
:101C400002488168027811448160704700000020DA
:101C5000074810B5016841F010010160032000F051
:101C600075F80F2000F006F800F024F8002010BDF1
:101C70000020024070B50D4D04464FF47A7128786B
:101C8000B1FBF0F00A490968B1FBF0F000F0C3FDC8
:101C900048B9102C07D200222146501E00F036F819
:101CA00000206C6070BD012070BD000000000020AD
:101CB0000C0000200C4808B5816941F001018161E8
:101CC000816901F001010091C16941F08051C16158
:101CD000C06900F0805000900448416821F0E06144
:101CE00041F00071416008BD001002400000014059
:101CF000002809DB00F01F0201219140400980000B
:101D000000F1E020C0F8001170470000F0B40E4B65
:101D10001B680C46C3F30223C3F10705042D00D949
:101D20000425191D072901D2002300E0DB1E01262E
:101D300006FA05F1491E214099409E40761E164044
:101D40003143F0BC02F0A4B80CED00E0064900F00D
:101D5000070208684FF6FF03184040EA0220034AD2
:101D600010430860704700000CED00E00000FA0529
:101D70002DE9F0470F46050061D0434E306800F072
:101D80000700B84209D2306820F0070038433060BD
:101D9000306800F00700B84251D128683B4C8107F9
:101DA00012D5400703D5606840F4E0606060287891
:101DB000000703D5606840F4605060606068A968FF
:101DC00020F0F000084360602878C00728D06868D9
:101DD000012810D02168022810D0890700292EDAA6
:101DE000616821F0030101436160FFF791FD8046C6
:101DF00041F288390DE021688903EFE78901EDE7B9
:101E0000FFF786FDA0EB0801494502D90320BDE894
:101E1000F0876068696800F00C00B0EB810FEFD1CB
:101E2000306800F00700B8420BD9306820F0070096
:101E300038433060306800F00700B84201D001201C
:101E4000E5E72878400705D56068E96820F4E06098
:101E5000084360602878000706D56068296920F487
:101E6000605040EAC100606000F038F86168084ADC
:101E7000C1F30311515CC840064908600648006878
:101E8000FFF7F8FE0020C2E70020024000100240E9
:101E90003A4A00080C0000200400002004480549CC
:101EA00000684968044AC1F30221515CC840704788
:101EB0000C000020001002404A4A0008044805496E
:101EC00000684968044AC1F3C221515CC8407047A8
:101ED0000C000020001002404A4A00080E4A5168D7
:101EE0000E4801F00C03042B11D0082B0FD10C4825
:101EF000C1F38343C903C05C0AD55168084AC1F3E2
:101F00004041921E515C054A5043B0FBF1F07047CE
:101F100004494843704700000010024000127A0054
:101F20002A4A000800093D002DE9F84F040070D04E
:101F30002078C04DC00749D06868C0F381000128EF
:101F400007D06868C0F38100022809D16868C0031F
:101F500006D52868800339D560680028E7D035E0C9
:101F60006068B0F5803F0BD010B1B0F5A02F11D054
:101F7000286820F480302860286820F4802002E05F
:101F8000286840F480302860606890B1FFF7C0FC9A
:101F900006460AE0286840F480202860F0E700BF89
:101FA000FFF7B6FC801B642873D828688003F7D538
:101FB0000CE0FFF7ADFC064605E000BFFFF7A8FC0C
:101FC000801B6428F0D828688003F7D420789A4EC4
:101FD00080074FF001094FF0000839D5686810F00C
:101FE0000C0F07D06868C0F38100022809D1686827
:101FF000C00306D42868800714D52069012808D1B9
:1020000010E02069B0B1C6F80090FFF781FC0746E8
:1020100005E00AE1FFF77CFCC01B0228C4D8286851
:102020008007F7D52868616920F0F80040EAC10010
:1020300028600DE0C6F80080FFF76AFC074604E060
:10204000FFF766FCC01B022823D828688007F7D456
:10205000207800072CD57948A169D9B1C0F8009043
:10206000FFF756FC074604E0FFF752FCC01B0228AE
:102070000FD8686A8007F7D571484FF4FA510068A5
:10208000B0FBF1F0009000BF0098411E0091FAD221
:102090000EE080E0C0F80080FFF73AFC074604E05D
:1020A000FFF736FCC01B022875D8686A8007F7D492
:1020B0002078400760D5E8690027C00008D4E869A7
:1020C00040F08050E861E869012700F080500090FE
:1020D0005C480168C90513D40168834641F48071E6
:1020E0000160FFF715FC824606E000BFFFF710FC19
:1020F000A0EB0A0064284ED8DBF80000C005F5D537
:10210000E06801280AD008B1052813D0286A20F019
:1021100001002862286A20F0040002E0286A40F0EA
:1021200001002862E06841F2883B98B1FFF7F0FBBC
:1021300082460BE0286A40F004002862EEE700BF08
:10214000FFF7E6FBA0EB0A0159455AD8286A800739
:10215000F6D50CE0FFF7DCFB824605E0FFF7D8FB85
:10216000A0EB0A0159454CD8286A8007F6D41FB164
:10217000E86920F08050E861E06988B36968C1F3DC
:102180008101022944D00228C6F8608004D0FFF7FC
:10219000BFFB044638E034E0FFF7BAFB074604E033
:1021A000FFF7B6FBC01B02282BD828688001F7D4A4
:1021B000206AB0F5803F05D16868A16820F400303E
:1021C00008436860D4E908010843696821F4741180
:1021D00008436860C6F86090FFF79AFB044606E083
:1021E00025E000BFFFF794FB001B022809D82868F0
:1021F0008001F7D51BE000BFFFF78AFB001B022818
:1022000002D90320BDE8F88F28688001F4D40EE0DD
:102210000128F7D06868226A00F48031914204D125
:10222000616A00F47010884201D00120EAE70020C2
:10223000E8E70000001002400000424280044242F1
:102240000C0000200070004070B5040009D0606AE6
:10225000002540B125616561A56294F8510040B147
:102260000CE0012070BD6068B0F5827FF4D0E561BC
:10227000F2E784F85050204600F040F8022084F83D
:1022800051002068016821F040010160A088218987
:1022900000F4827001F404410843A18901F4006153
:1022A0000843217C01F002010843217D01F0010176
:1022B0000843218B01F400710843217F01F03801AC
:1022C000084394F8201001F080010843218D01F4A7
:1022D0000051084321680860A069042101EA104008
:1022E000216848602068C16921F40061C1616565A9
:1022F000012084F85100002070BD000030B585B089
:1023000000240094019402940394006814498842C4
:1023100023D11448816941F480518161816901F4BC
:1023200080510491816941F00401816180690E4D01
:1023300000F004000490A0200090022001900320EF
:10234000039069462846FFF7EDF94020CDE90004E7
:10235000694628460294FFF7E5F905B030BD000054
:102360000030014000100240000801402DE9F84F04
:10237000044690F851001D4616460F46012838D1F4
:1023800060684FF00408B0F5827F01D1A06830B3D7
:10239000FFF7BEFA8246002F75D0002E73D094F856
:1023A0005000012825D04FF0010984F8509084F89E
:1023B00051804FF00008C4F85480A763A687E687D1
:1023C000C4F83080A4F83480A4F83680C4F8408083
:1023D000C4F84480A068B0F5004F0CD015E084F834
:1023E0005180009313460A46204600F01CF9BDE8D0
:1023F000F88F0220FBE72068016821F040010160AE
:102400002068016821F48041016020680168490664
:1024100003D4016841F040010160E068C0B134E0DC
:1024200020688168C90709D0007BA16B0870A06B88
:10243000401CA063E08F401EE08709E0FFF768FAC8
:10244000A0EB0A00A84202D3681C01D032E085B399
:10245000E08F0028E4D11BE020688168C90709D01B
:10246000C068A16B0880A06B801CA063E08F401E39
:10247000E0870AE0FFF74CFAA0EB0A00A84203D37A
:10248000681C02D016E012E09DB1E08F0028E3D175
:1024900052462946204601F03EF908B120206065E9
:1024A00084F8519084F85080606D00289FD00120FE
:1024B0009DE7FFE784F8519084F85080032096E769
:1024C0002DE9F84F984616468A460446FFF720FA4B
:1024D000814694F8510001281ED1BAF1000F73D043
:1024E000002E71D094F85000012815D0012784F8EF
:1024F0005070032084F8510000256565C4F830A0B1
:10250000A686E686A563A587E58765642564A06839
:10251000B0F5004F03D00CE00220BDE8F88F206832
:10252000016821F0400101602068016841F48041A8
:10253000016020680168490603D4016841F0400148
:102540000160E068B0F5006F606803D048B3012E09
:1025500027D047E008B1012E1FD1206B21680088E9
:10256000C86006E020688168890709D5216B098861
:10257000C160206B801C2063E08E401EE0860CE072
:10258000FFF7C6F9A0EB0901414503D3B8F1FF3FBE
:1025900003D035E0B8F1000F32D0E08E0028E1D151
:1025A00023E0206B21680078087306E020688168CA
:1025B00089070AD5216B09780173206B401C2063C1
:1025C000E08E401EE0860DE02BE0FFF7A1F9A0EBC6
:1025D0000901414503D3B8F1FF3F03D010E0B8F142
:1025E000000F0DD0E08E0028E0D14A46414620463B
:1025F00001F0BFF808B120206065A06830B109E0A3
:1026000084F8517084F85050032086E72068C16830
:102610008068009084F8517004F8505F606800286A
:10262000F3D0012079E72DE9FF4F81B01D46934695
:1026300004464FF001090E9EFFF76AF9074694F829
:1026400051006168012806D0B1F5827F3CD1A168B4
:10265000C9BB042838D10298002871D0BBF1000F03
:10266000FBD0002DF9D094F8500001282CD04FF069
:10267000010A84F850A094F85100042802D00520E3
:1026800084F851004FF00008C4F85480C4F838B002
:10269000E587A58702992163E586A586C4F8408071
:1026A000C4F8448020680168490603D4016841F0F9
:1026B00040010160E068B0F5006F606808D0F0B3D9
:1026C000012D49D081E0FFE7022005B0BDE8F08F81
:1026D00008B1012D39D1206B21680088C860206BBA
:1026E000801C2063E08E401EE0862EE0206881681A
:1026F00089070FD5E18E69B1B9F1010F0AD1216BBC
:102700000988C160206B801C2063E08E401EE0863B
:102710004FF0000920688168C9070CD0E18F51B1E2
:10272000C068A16B0880A06B801CA063E08F401E76
:10273000E0874FF00109FFF7EBF8C01B01E00BE069
:1027400067E0B04201D3701C50D1E08E0028CDD19B
:10275000E08F0028CAD13EE0206B21680078087322
:10276000206B401C2063E08E401EE0862DE0206838
:10277000816889070FD5E18E69B1B9F1010F0AD1DE
:10278000216B09780173206B401C2063E08E401E92
:10279000E0864FF0000920688168C9070CD0E18FFE
:1027A00051B1C068A16B0870A06B401CA063E08FA2
:1027B000401EE0874FF00109FFF7AAF8C01BB042A6
:1027C00002D3701C01D011E086B1E08E0028CED17A
:1027D000E08F0028CBD13A463146204600F0C9FFB1
:1027E00050B12020606584F8508012E084F851A038
:1027F00084F85080032068E7A06818B92068C16891
:102800008068009084F851A084F85080606D0028A2
:10281000F1D0012059E710B5401EB0F1807F01D3FF
:10282000012010BD4FF0E02460610F21601701F01E
:102830002FFB0020A06107202061002010BD38B5CB
:10284000044690F84200202801D0022038BD51B142
:102850004AB10120206300206063204601F0B4F9F2
:10286000216B012901D0012038BD21680A6849681F
:10287000009121680C3151E8002F42F0100241E82C
:102880000023002BF5D138BD7FB50E462F49884275
:102890005AD12F48417810F8022B01EB0224210273
:1028A0004FF4807201F036FA00F0CCFC224629A1E8
:1028B00001A8FDF799FC0025274B01AA29462846C7
:1028C000009500F00DFE10237F221B2100200095B3
:1028D00000F074FDC4EBC41040F2B631B0FBF1F06F
:1028E00002F042F802F014F801F01CFB01F0B8FD10
:1028F000C2B20F231C210120009500F0ABFC204642
:1029000001F0DDFD0022154B01F052FC01F06AFBE5
:1029100001F0FEFF02460B4611A101A8FDF764FC81
:102920000D4B01AA00214020009500F0D9FD00F0D8
:10293000C1FE324606490548FFF781FF0A48006894
:10294000016821F0040101607FBD0000C401002086
:1029500014000020256400004450000800002340BB
:10296000252E3266252500000C020020704700004D
:10297000F8B5016804460868CA684B6910F00F0F83
:102980004FF0000559D003F0010602F49077374369
:1029900065D0C10705D0D10503D5616C41F00101B7
:1029A0006164410705D5D90703D0616C41F002018C
:1029B0006164810705D5D90703D0616C41F004013A
:1029C0006164010707D502F02001314303D0616C37
:1029D00041F008016164616C00293AD0800604D599
:1029E000900602D5204601F032F820684069616CFB
:1029F000C0F38010090700D460B3204600F0F2FF56
:102A000020684069400621D52068143050E8001F36
:102A100021F0400140E80012002AF5D1E06BA8B196
:102A20006D494163E06BFEF70FFD002811D0E06BAC
:102A3000416B01B0BDE8F040084783060FD593060F
:102A40000DD52046BDE8F84001F001B82046FFF75B
:102A50008DFFF8BD2046FFF789FF6564F8BD266B42
:102A60002023012E7CD1C6067AD5D60678D50868F3
:102A70004868009048694FF00206400640D5E16B77
:102A8000086840680004000CE8D0A28D8242E5D9B5
:102A9000E085886920282DD020680C3050E8001F80
:102AA00021F4807140E80012002AF5D1206814302A
:102AB00050E8001F21F0010140E80012002AF5D182
:102AC0002068143050E8001F21F0400140E8001257
:102AD000002AF5D184F84230256320680C3050E894
:102AE000001F21F0100140E80012002AF5D1E06B30
:102AF000FEF786FC6663A08DE18D401A81B22AE064
:102B0000A08DE18D401A81B2E08D0028A6D0002969
:102B1000A4D022680C3252E8000F20F4907042E8F2
:102B20000007002FF5D12068143050E8002F22F064
:102B3000010240E80027002FF5D184F842302563D8
:102B400020680C3050E8002F22F0100240E80023EB
:102B5000002BF5D166632046FFF796FEF8BDFFE730
:102B600005062BD5150629D594F841002128F5D165
:102B7000A068B0F5805F01D12069B0B1206A411C26
:102B80002162216800784860E08C401E0004000C3F
:102B9000E084E3D12068C16821F08001C160206831
:102BA000C16841F04001C160D8E7206A0088C0F3E5
:102BB00008004860206A801C2062E5E74006CDD509
:102BC0005006CBD5CA68204622F04002CA6084F87D
:102BD000413000F0F3F8C1E7E738000870B50400B1
:102BE00004D094F84100002510B106E0012070BD2A
:102BF00084F84050204600F023F8242084F8410057
:102C00002068C16821F40051C160204600F080FFB7
:102C10002068016921F4904101612068416921F037
:102C20002A0141612068C16841F40051C1606564B6
:102C3000202084F8410084F842006563002070BDC4
:102C4000F0B585B0002406460094019402940394E4
:102C500000682C49884253D12B48C16941F40031A6
:102C6000C161C16901F400310491816941F004013D
:102C700081618069254D00F00400049004200090DB
:102C8000022001900320039069462846FEF74AFD82
:102C90000820CDE90004694628460294FEF742FD6B
:102CA0001C4D1B488027C5E90004C5E902472C617B
:102CB0006C61AC612846EC61FEF7BCFC08B1FEF724
:102CC0009DFBF5636E62134D11484435143001C508
:102CD000102091C50F4845F8104944306C61AC6133
:102CE000EC61FEF7A7FC08B1FEF788FBB563002294
:102CF000114626206E62FFF709F82620FEF7F8FF3E
:102D000005B0F0BD00440040001002400008014042
:102D10006C0002400C020020704770472DE9F84318
:102D2000044690F84100984616460D46202802D0E9
:102D30000220BDE8F88385B17EB1002060642120C7
:102D400084F84100FEF7E4FDA6848146E684A0688D
:102D50002027B0F5805F02D003E00120E9E7206979
:102D600010B12E4600250EE000260CE08021204602
:102D700000F072FFA8B9C6B116F8010B21684860CF
:102D8000E08C401EE084E08C4B464FF00002CDF812
:102D900000800028EAD14FF04001204600F05CFF9F
:102DA00040B184F841700320C3E735F8020BC0F34B
:102DB0000800E3E784F841700020BAE77047FEE7B7
:102DC00001684A69D24352050FD46FF480624A61A8
:102DD000002140F8301F202242738173026942F0C3
:102DE0000402026101730120704700207047000057
:102DF000F8B50446C06A1E460D461746082807D097
:102E0000012805D010F5803F02D0206B122804D194
:102E10002068016841F480710160134600224FF080
:102E200001112046009600F05DF840B1206800686E
:102E3000C00502D54FF4007020640320F8BD20695E
:102E4000B0F5804F0ED00620216800EAD51040F082
:102E5000F000086133463A460B49204600F08AF8F4
:102E600078B902E005F0FE0000E0E8B221680861F0
:102E7000054933463A46891F204600F07BF8002872
:102E8000DCD00120F8BD00000800010070B5164636
:102E90000D4604461EE02046FFF792FF08B10120D0
:102EA00070BD681C16D0FEF733FD801BA84200D809
:102EB00085B920684069C04340070BD5002044F81D
:102EC000300F20216173A073216941F0200121613D
:102ED0002073E4E720684069C0434007DBD400204A
:102EE00070BD00002DE9F047984617460D46044690
:102EF000C1F30746DDF820902AE000BFB8F1FF3F9C
:102F000026D0FEF705FDA0EB0901414502D8B8F136
:102F1000000F1DD12068012E16D0806925EA00001F
:102F20000004000C12D00020B84211D1002044F857
:102F3000300F20216173A073216941F020012161CC
:102F400020730120BDE8F0874069E7E70120EBE747
:102F50002068012E0AD0806925EA00000004000CD8
:102F600006D00020B842C9D00020EBE74069F3E763
:102F70000120F7E72DE9F047984616460D4604462E
:102F80004FF000094FF0200AC1F3074723E0206803
:102F90004069C043400515D42068016841F40071C0
:102FA000016021686FF480604861C4F8309084F853
:102FB0003DA084F83E90216C41F00401216484F826
:102FC0003C9021E0701C06D0FEF7A2FCA0EB0800AC
:102FD000B04203D816B1012F1FD021E02068012F85
:102FE00015D0806925EA00000004000C18D000BF4D
:102FF00044F8309F84F80DA084F80E90216941F0C8
:103000002001216184F80C900120BDE8F08740691F
:1030100025EA00000004000CEAD12068406901E0C4
:103020002068806925EA00000004000CAFD1ECE7BD
:1030300070B516460D4604461EE02046FFF7C0FE5A
:1030400008B1012070BD681C16D0FEF761FC801B22
:10305000A84200D885B920684069C04300060BD556
:10306000002044F8300F20216173A073216941F0E2
:10307000200121612073E4E720684069C043000615
:10308000DBD4002070BD00000D4808B5416941F057
:10309000010141614069002200F0010000901146E9
:1030A0001020FEF733FE1020FEF722FE002211460C
:1030B0001120FEF72BFEBDE808401120FEF718BED8
:1030C000001002402DE9F04186B000242848009409
:1030D000019402940394816941F010018161816936
:1030E00001F010010491816941F020018161816941
:1030F00001F020010491816941F00401816181693D
:1031000001F004010491816941F008018161806945
:10311000012200F00800174F550304902946384655
:10312000FEF7F0FBDFF85080012210214046FEF749
:10313000E9FB0095022601250396CDE90154694675
:103140003846FEF7EFFA1020CDE90005CDE902463A
:1031500069464046FEF7E6FA4FF440508DE83100EC
:1031600069460648FEF7DEFA06B0BDE8F0810000C9
:10317000001002400010014000080140000C014016
:103180000D4810B50B4901600C49416000214FF416
:1031900080428160C0E9031241618161C1610162C5
:1031A000FEF7BCFB002803D0BDE81040FEF726B9AF
:1031B00010BD00000054004018010020801A0600D5
:1031C000104810B50E4901604FF482714160002132
:1031D0008160C1604FF400720161C0E905120822EC
:1031E000C0E90721416281620A21C162FFF72CF820
:1031F000002803D0BDE81040FEF700B910BD000064
:10320000003001406C0100200C4810B50A490160F3
:103210004FF4E1314160002181600C22C160C0E9BE
:1032200004128161C161FFF7D9FC002803D0BDE819
:103230001040FEF7E3B810BD00440040C401002078
:10324000FEE7FEE74FF480610148FDF7A4B80000F7
:10325000940200202DE9F84300241E460F468046C4
:103260008518DDF820900AE03819C3B2C1B2EAB27D
:103270004046CDF8009000F007F8641CE4B2B44278
:10328000F2D3BDE8F88300002DE9F84F0446174655
:103290003D481E460D46BC4210D1B5420AD90570C4
:1032A0002E461D4606E0294620460A9A00F06EF892
:1032B0006D1CEDB2B542F6D9BDE8F88FB5420FD11D
:1032C000BC420AD904702746144606E02946204627
:1032D0000A9A00F05BF8641CE4B2BC42F6D9EBE752
:1032E000381B711B002801DD012300E000234FF093
:1032F000FF3202EB43030093002901DD012300E0CC
:103300000023A846002502EB430B002800DA4042C8
:103310008146002900DA49428A46D14516DC2FE071
:1033200008F0FF01E0B20A9A00F030F805EB0A005D
:1033300005B2B9EB450F06DC08EB0B000FFA80F87D
:10334000A5EB090005B20098204404B2BC42E7D1C5
:10335000B2E700BF08F0FF01E0B20A9A00F016F8E9
:1033600005EB090005B2BAEB450F05DC00982044D7
:1033700004B2A5EB0A0005B208EB0B000FFA80F8C7
:10338000B045E7D198E700001000002030B5802854
:103390000ED240290CD201F007040123064DA340B0
:1033A000C90805EBC111002A0A5C02D09A430A54ED
:1033B00030BD1A43FBE70000940200202DE9F841DC
:1033C0001C46079E851888460746EAB20B460096BB
:1033D000FFF75AFF4444E3B2EAB2E1B2384600963E
:1033E000FFF752FF3A46E3B2414610460096FFF718
:1033F0004BFFE3B2EAB2E8B241460096FFF744FF62
:10340000BDE8F88110B51420FEF77AF9AE2000F07F
:103410007FF8202000F07CF8102000F079F8B02030
:1034200000F076F8C82000F073F8002000F070F883
:10343000102000F06DF8402000F06AF8812000F0C4
:1034400067F8DF2000F064F8A12000F061F8A62002
:1034500000F05EF8A82000F05BF83F2000F058F87C
:10346000A42000F055F8D32000F052F8002000F01E
:103470004FF8D52000F04CF8F02000F049F8D920A2
:1034800000F046F8222000F043F8DA2000F040F87F
:10349000122000F03DF8DB2000F03AF8202000F088
:1034A00037F88D2000F034F8142000F031F8FFF7E1
:1034B000C9FE00F0FFF8BDE81040AF2000F028B8CA
:1034C0003CB51C78059D203ACDE900455D68E41DBA
:1034D0005B78E408544303FB045200F083F83CBDDE
:1034E0002DE9F8411E46154688460446079F09E027
:1034F0003346414620460097FFF7E2FF70786D1C87
:103500002044C4B22A78002AF2D1BDE8F881000034
:103510001CB500218DF804108DF80500481E0090A0
:10352000022301AA78210248FEF7BCFA1CBD000064
:10353000180100202DE9FC4180460720CDE9000359
:1035400001F00704CD08164602FA04F01F46C2B285
:1035500023464146284600F089F8002C0CD0601E16
:10356000C0B2CDE90007C4F1080026FA00F2681CD9
:103570000023414600F07AF8BDE8FC812DE9FC43C8
:1035800001F007061446CD089846814601F0070170
:1035900006EB080204FA01F0099F082A16D9072150
:1035A000CDE90017C2B233464946284600F05EF81E
:1035B00008EB06000938C0B2CDE90007C6F10800E3
:1035C00024FA00F2681C0023494607E0521ED1B2DB
:1035D000CDE90017C2B233464946284600F046F806
:1035E000BDE8FC832DE9FF4F82B01D460F9893463E
:1035F000C70800F0070088460026019018E00298EE
:1036000000240BEB060A00EB06090DE004FB05F0B5
:10361000109B10F80A2008EBC400C1B209F0FF00AB
:10362000FFF788FF641CE4B2BC42EFD3761CF6B20D
:10363000AE42E4D30198002815D005FB07F600241C
:1036400008EBC7070DE010980090311902981BF89D
:1036500001202044F9B2C0B2019BFFF78FFF641C28
:10366000E4B2AC42EFD306B0BDE8F08FF0B5082865
:10367000DDE9056419D2802917D20CB1D243D2B248
:10368000FF25761C05FA06F6C3F10803084F46EA43
:103690000204DD4007EBC017044B785CB2432C43B7
:1036A000AA4320405A7010437854F0BD1000002007
:1036B00094020020F0B5A3B040200024134E8DF8F2
:1036C000040001AD671E002006EBC4112B180A5C34
:1036D000401CC0B25A708028F8D304F1B000C0B2C8
:1036E000FFF716FF0020FFF713FF1020FFF710FF72
:1036F000812301AA782106480097FEF7D3F9641CBC
:10370000E4B2082CDFD323B0F0BD00009402002007
:10371000180100207047F8B5044640684FF48273E2
:10372000984217D1A0684FF48065B0F5004F01D0E2
:10373000A8420FD12068066826F04006066060683F
:10374000984207D1A068A84204D100920B460022FB
:10375000012103E000920B4600228021204600F068
:1037600033F8002804D0606D40F02000606503202D
:10377000F8BDF8B515460E460B46009204460122E8
:10378000022100F021F840B9334600228021204672
:10379000009500F019F8002804D0606D40F020007A
:1037A00060650320F8BD00000A4601466423014815
:1037B000FEF7DCBD6C0100200A4601466423014887
:1037C000FEF77EBE6C0100202DE9F8431E469146AF
:1037D00088460446089DFEF79BF8401B351AFEF705
:1037E00097F8074625480068C0F3CB30684338E0B7
:1037F000701C37D0FEF78CF8C01BA84203D215B15D
:10380000009860B32CE02068416821F0E00141603D
:103810006068B0F5827F0BD1A068B0F5004F02D090
:10382000B0F5806F04D12068016821F0400101608B
:10383000A06AB0F5005F09D12068016821F4005149
:1038400001602068016841F400510160012084F8A2
:103850005100002084F850000320BDE8F8830025C3
:10386000401E00902068816838EA010004D00021E1
:103870004945BDD10020F0E70121F9E70C00002007
:103880007047FEF7DDB930B58FB028216846FCF7E8
:10389000A4FD14210AA8FCF7A0FD01210804CDE92C
:1038A00000100024029402250491CDE907504FF442
:1038B000E01009906846FEF737FB08B172B6FEE7E4
:1038C0000F20CDE90A054FF48060CDE90C400221BC
:1038D0000AA80E94FEF74CFA002801D072B6FEE753
:1038E0000FB030BD704710B5406A0021C185C1845A
:1038F000FFF73CF810BD70B5446A2068406994F841
:103900004110C0F3C0100025212904D118B1E5846D
:10391000204600F08EF82068406994F84210C0F309
:103920008010222904D118B1E585204600F05AF80C
:10393000606C40F0100060642046FFF717F870BD1F
:1039400010B50146406A096809684FF0000289060F
:103950002ED4C28501680C3151E8003F23F48073F6
:1039600041E80034002CF5D10168143151E8003FE2
:1039700023F0010341E80034002CF5D10168143133
:1039800051E8003F23F0400341E80034002CF5D11A
:10399000202180F84210016B012909D101680C3106
:1039A00051E8003F23F0100341E80034002CF5D12A
:1039B0004263016B012902D0FFF7AEF910BD818D82
:1039C000FEF762FF10BD10B5406A01214163016B33
:1039D000012902D0FFF7A1F910BD818D4908FEF73A
:1039E00053FF10BD01680C3151E8002F22F4907292
:1039F00041E80023002BF5D10168143151E8002F74
:103A000022F0010241E80023002BF5D1016B0129CE
:103A100009D101680C3151E8002F22F0100241E871
:103A20000023002BF5D1202180F8421000210163F2
:103A3000704701680C3151E8002F22F0C00241E8C4
:103A40000023002BF5D1202180F84110704708B5E4
:103A500090F84210222901D0022008BD82684FF45C
:103A600080539A4201D1016921B1816A9A421BD0E7
:103A70004AB10AE00268816A5268C2F308020A8009
:103A8000816A891C08E0026972B10268526802F01A
:103A90007F020A70816A491C8162C18D491E090436
:103AA000090CC18503D01BE002685268F1E7016888
:103AB000CA6822F02002CA600168CA6822F48072D3
:103AC000CA6001684A6922F001024A61202180F837
:103AD000421000214163026B012A03D0FFF71CF959
:103AE000002008BD016301680C3151E8002F22F06D
:103AF000100241E80023002BF5D101680A68D206C4
:103B000002D50A6849680091818DFEF7BDFEE7E79E
:103B100070B5044600680169E26821F44051114320
:103B200001612169A0680843616908432168CA6886
:103B300041F20C639A430243CA6020684169A2695A
:103B400021F44071114341611E492068884202D12D
:103B5000FEF7B4F901E0FEF7A1F900EBC00101EBBB
:103B60000012606864218000B2FBF0F3B3FBF1F354
:103B70006FF018067343B2FBF0F5B2FBF0F605EBFD
:103B80008305322303EB0515B5FBF1F5B6FBF1F622
:103B900005F0F00505EB0615B2FBF0F6B2FBF0F010
:103BA000B0FBF1F06FF01802504306EB800003EB1E
:103BB0000010B0FBF1F0216800F00F00284488608D
:103BC00070BD00000038014038B58162044682852E
:103BD000002013466064222284F84220E56B1B4AD1
:103BE000AA62E56B1A4AEA62E56B1A4A2A63E26B3B
:103BF00050630A462168E06B091DFDF749FD206806
:103C0000016840680090206948B120680C3050E895
:103C1000001F41F4807140E80012002AF5D12068AD
:103C2000143050E8001F41F0010140E80012002A62
:103C3000F5D12068143050E8001F41F0400140E801
:103C40000012002AF5D1002038BD000041390008DB
:103C5000C7390008F73800082DE9F8439846174699
:103C60000D460446089E24E0701C22D0FDF750FE4D
:103C7000A0EB0800B0421AD8CEB12068C16849074D
:103C800017D5802D15D0402D13D00168C9430907E1
:103C90000FD401680025406800902046FFF7A2FE7F
:103CA0000820606484F840500120BDE8F8830320B8
:103CB000FBE72068006835EA000004D00020B84225
:103CC000D2D00020F1E70120F9E700000148FEF71B
:103CD0004FBE0000C4010020FEE7000038B5C72039
:103CE0008DF8000000F0A8F800F07AF8084C0022E7
:103CF00010212046FDF706FE01216846FFF75CFD16
:103D0000012210212046FDF7FDFD00F069F838BDC5
:103D10000008014077B581B0054602208DF800000B
:103D20009DF808109DF80A008DF8080014468DF8DB
:103D30000A1000F081F80D4E002210213046FDF7E8
:103D4000E1FD01216846FFF737FD032102A8FFF7D7
:103D500033FD21462846FFF72FFD01221021304672
:103D6000FDF7D0FD00F03CF87FBD000000080140E9
:103D700077B581B0054603208DF800009DF8083026
:103D80009DF80A008DF8080014468DF80A3000F0FE
:103D900027F8124E002210213046FDF7B3FD012115
:103DA0006846FFF709FD032102A8FFF705FD20B9CA
:103DB00021462846FFF7F8FC40B101221021304689
:103DC000FDF7A0FD4FF0FF3004B070BD01221021BF
:103DD0003046FDF797FD0020F6E70000000801409F
:103DE0007CB50525134E002401948DF800408DF814
:103DF0000450002210213046FDF784FD042101A863
:103E0000FFF7DAFC20B901216846FFF7CDFC40B18D
:103E1000012210213046FDF775FD2046C007E3D191
:103E20007CBD012210213046FDF76CFD9DF800009D
:103E3000F4E700000008014038B50620094C8DF871
:103E40000000002210212046FDF75CFD012168469C
:103E5000FFF7B2FC012210212046FDF753FDFFF7CA
:103E6000BFFF38BD00080140490050EAC12018BF1B
:103E700004204A0D18BF40F0010040F2FF72B2EB7F
:103E8000515F08BF40F00200012808BF05207047BD
:103E90000907090E002804DB00F1E02080F8001477
:103EA000704700F00F0000F1E02080F8141D70470B
:103EB00030380A2801D201207047002070470000E6
:103EC0008AB0FDF7C5FEFFF7DEFCFFF7FBF8FFF752
:103ED000DBF8FFF775F9FFF797F9FFF751F9FFF7EF
:103EE00091FAFFF7FBFE242200216846FFF740FF0E
:103EF0004FF0FF33242269460748FEF70FFF4FF4C7
:103F0000817206490448FEF79AFC0548006801687A
:103F100021F004010160FEE7C4010020140000202C
:103F20000C0200202DE9F04D07460E4600F0A0FBE4
:103F300004460D463A46334600F0F4FBDFF86CA029
:103F4000DFF86CB01B4B0746884616F0004F4FF069
:103F500000020AD000F0C6FA0AD900225B463846B1
:103F6000414600F04FFB1BD212E000F0BBFA08D232
:103F7000002253462046294600F0E0FB04460D4649
:103F80000EE000225B463846414600F03BFB07D876
:103F9000002253462046294600F056F804460D46B6
:103FA0003146204665F31E01BDE8F08D0000F03F6C
:103FB0000000E03F0000E0BF10B500290AD00878FB
:103FC000002807D005487844FCF7E6FD002801D01A
:103FD000002010BD0248784410BD00003A110000D6
:103FE0003211000021F00042A2F16052B2F5801FB0
:103FF00001F0004328BFD2F17F6C0BD95FEA001CAF
:1040000043EAC20242EB507018BF704728BF20F04D
:1040100001007047B2F5801FBCBF184670474FEAD9
:10402000410C1CF5001F02D2084600F0F6BC70B52A
:1040300000F094FA00000089FFF7F6BF4FF000404F
:10404000A0F580007047000010B591EA030F48BF4B
:1040500083F0004300F17A83841A71EB030C05D2DC
:10406000121943EB0C03001B61EB0C01DFF824E198
:104070004FEA1154A4EB135C1EEA430F18BF9EEAEB
:10408000445F73D023EA0E03DCF1200E21EA0451D1
:1040900043F4801332D322FA0CFE10EB0E0023FA05
:1040A0000CFE41EB0E01CCF1200E03FA0EFE10EBDC
:1040B0000E0051F10001B1F5801FCCF1200E32D27B
:1040C00001EB045112FA0EF2BDE8104058BF7047E0
:1040D000401C38BF5FEA420218BF7047002814BF77
:1040E00020F0010041F100014FEA410313F5001FE8
:1040F00038BF7047A1F1C04100F07EBA012A43EBFE
:104100000302ACF1200CDCF11F0E32BF4FF0000EA9
:1041100023FA0CF310EB030041EB0451B4EB115FF5
:10412000D0D0A1EB045101F5801149085FEA3000BD
:1041300001EB04510ED350F1000038BF12FA0EFE0D
:1041400008D1BDE81040C9E7401C38BF5FEA420211
:10415000CAD1C3E7BDE810404FEA410313F5001F81
:1041600038BF7047A1F1C04100F046BA9EEA445FF3
:1041700008D011EA5E0FBDE8104004BF01F0004115
:1041800000207047BDE8104070B500F0E7F900BFAF
:1041900064FBBE3E0000E0FF491058BFC1F1404142
:1041A0005B1058BFC3F140438B42EFF30080704770
:1041B0002DE9C04130B4DFF8A0C23CEA111418BFA9
:1041C0003CEA131400F0EC8081EA03051CEA1114A8
:1041D00044EAD57418BF1CEA131500F0C780A4EB9D
:1041E00005044FF0004545EAC12145EAC32341EAF1
:1041F000505143EA525304F17F74994204F500345C
:104200004FEAC0204FEAC22208BF904200F09C80D3
:104210004FEA13650FF24016765D4FEA134506FB31
:1042200005F7C7F1807706FB07F74FEAD737A7FBFB
:1042300003687642C8F58038A7FB06CE38BFA8F1E0
:10424000010807FB08E64FF0000EA6FB028CE6FB18
:1042500003CEDCF1000CCEF1004E38BFAEF1010E02
:10426000A6FB0C584FF000074FF00005E6FB0E8749
:10427000A1FB08C6A0FB07CE16EB0E0645F1000514
:10428000E1FB076515F1E04E7EBFA4F580345FEADF
:1042900046066D4116F1800745F100054FEA1727E4
:1042A0004FEA066647EA0567A6F1DE46B6F1805F8B
:1042B0004FEA15251FD9384624F0010C05EBC471CF
:1042C000BCF1FE6F01EB0C1102D8F0BCBDE800811F
:1042D00024425CBF01F5801E9EEAC47F02D4F0BC7C
:1042E000BDE80081244238D4F0BCA1F1C041BDE852
:1042F000004100F081B94FEAD22242EA43524FEA2C
:10430000D323A7FB02864FEAD02040EA415007FBA7
:1043100003661EEA0E0F4FEAD12105FB026658BF65
:10432000A6EB0056B6EB00564FEA520E4EEAC37E9D
:1043300018EB0E0E56EB530EBDD518EB02085E417E
:104340007F1C55F10005B6E74FF480154FF00007CC
:104350004FF000064FF00008ADE7F0BC4FF0000052
:1043600001F1C04101F00041BDE8008111EA0C1FDC
:104370000CEA131500D00CE013EA0C1F00F02580A6
:104380004FF00000F0BC81EA030101F00041BDE8FC
:104390000081F0BCBDE8004181EA030100F02CB9C6
:1043A000F0BCBDE8004170B500F0D8F8097EFC3ED5
:1043B00000F007B881EA03014FF0000001F000416E
:1043C000704781EA030100F017B9F0BCBDE8004175
:1043D0004FF0000021497047FFFDFBF9F7F5F4F2BB
:1043E000F0EEEDEBE9E8E6E4E3E1E0DEDDDBDAD890
:1043F000D7D5D4D3D1D0CFCDCCCBCAC8C7C6C5C4EE
:10440000C2C1C0BFBEBDBCBBBAB9B8B7B6B5B4B304
:10441000B2B1B0AFAEADACABAAA9A8A8A7A6A5A4EF
:10442000A3A3A2A1A09F9F9E9D9C9C9B9A999998B3
:104430009797969595949393929191908F8F8E8E56
:104440008D8C8C8B8B8A89898888878786858584E3
:1044500084838382828181800000FF070000F87FCF
:104460004FEA41034FEA5353A3F58063D3F11E0390
:10447000C8BFD3F1210C0CDD4FF0004242EAC1224B
:1044800042EA505232FA03FC8CEAE17CACEBE17078
:104490007047102BC4BF0020704703F5787CBCF137
:1044A000FF3F04D06FF0004282EA2100704770B5F0
:1044B00000F054F84992248000207047F2E7B0FAE7
:1044C00080F310FA03F10AD0C3F11D0303F58063F2
:1044D0004FEA41504FEA035202EBD12170474FF0AF
:1044E0000000704751EA030C17D41CF5801F58BF19
:1044F000BCF5801F00F10680994218BF704708BFC5
:104500009042704707D711F5801F58BF13F5801FE1
:1045100019D499427047894270471CF5801F08D50D
:10452000BCF5801FF7D58B4218BF704708BF824289
:1045300070474FF4001C1CEB410F38BF1CEB430FBE
:1045400001D28B42704770B500F008F89224490000
:104550004FF000514FF08053FFF71EBE0EF1020ED8
:104560002EF0030E5EF8046B364205D4012A43EBAD
:10457000030515F5001F12D8012841EB010C1CF5AD
:10458000001F0CD80ED14FEAD17C15F5001F0CEBA3
:104590004C0C0CF1020C08BF4CEBD37C04E04FF048
:1045A000080C01E04FEAD37C0CEB4C0526FA05F62B
:1045B00006F00706B6F1040C06D20EEB860CBDE839
:1045C00070404CF0010C6047DFE80CF0090B020270
:1045D0004FF000414FF00000A1F5002170BD1946D9
:1045E0001046012851EB010418BFD4F5001484BF14
:1045F000002001F0004170BD0808A0F500114FEA4D
:104600003101704753EA010C17D41CF5801F58BFC5
:10461000BCF5801F00F106808B4218BF704708BFB1
:104620008242704707D713F5801F58BF11F5801FCE
:1046300019D48B4270479B4270471CF5801F08D5E8
:10464000BCF5801FF7D5994218BF704708BF90424C
:1046500070474FF4001C1CEB430F38BF1CEB410F9D
:1046600001D2994270470FB40CBC03BCFFF76BBF7B
:104670005FEA410C5FEA5C5CACF580635B1C39D49B
:10468000D3F1340240F34580B2F1200314DA4FF045
:10469000010C0CFA02FCACF101030340B3EB5C0229
:1046A00020EA030008BF10EA0C0F98BF704710EB18
:1046B0000C0041F1000170470AD0C3F1200201FA59
:1046C00002FC012821FA03F101FA03F14CF1000088
:1046D0004FF0010C0CFA03FCACF10103B0F1004FF8
:1046E00021EA030108BF11EA0C0F4FF0000088BF58
:1046F00061447047B3F1FF3F28BF50EAC12C01F07D
:1047000000414FF0000084BF41F07C5141F4700142
:104710007047B3F5806FB8BF704770B5FFF71EFFE5
:1047200040DBB6BE91EA030F10B581F000413FF5C2
:1047300093AC83F0004300F009B8000010B591EA93
:10474000030F48BF83F000433FF586AC841A71EB3A
:10475000030C07D212198CF0004C43EB0C03001B26
:1047600061EB0C01DFF8A4E14FEA1154A4EB135CF8
:104770001EEA430F18BF9EEA445F00F0B08023EAB0
:104780006E03524221EA0451C3EB6E0338BF5B1E35
:10479000DCF1200E25D322FA0CFE10EB0E0043FABA
:1047A0000CFE41EB0E01CCF1200E03FA0EFE10EBD5
:1047B0000E0051F10001CCF1200E29D412FA0EF2B4
:1047C00001EB0451BDE8104058BF7047401C1CBFAE
:1047D000B2F1004F704700280CBF491C20F00100C7
:1047E000704712EB020E43EB030218BF4FF0010EAD
:1047F0004EEA4202ACF1200CDCF11E0E54D943FA11
:104800000CFE10EB0E0051F1FF31CCF11E0ED5D590
:104810000EF1010E12FA0EFE404141EB010101EBD7
:10482000445C5FEA5C5C10D910EBDE7001EB045174
:1048300038BFBEF1004FBDE8104018BF70470028D8
:104840000CBF491C20F00100704730D24FEAD42C35
:1048500011F5001124F400641BD0B1FA81F20B3A77
:10486000A41AA41ED2F12003914030FA03F3194395
:10487000904001EBCC71002C01EB0451BDE81040DD
:10488000A8BF704701F1C0414FF0000001F00041A6
:104890007047B0FA80F310FA03F100D110BDE41AAA
:1048A000173C4805C90AE4E701EB045110BD491063
:1048B00001EB0451BDE810404FEA300002E04FF038
:1048C000000170474A0008BF0042F8D0B2F5001F4F
:1048D00028BF704701F000414FF0000070479EEA8A
:1048E000445F07D011EA5E0FBDE8104004BF00210D
:1048F00000207047BDE8104070B5FFF72FFE00BFE5
:1049000040DFF63E83F00041104670470000E0FFB4
:1049100043004FEAD30C4FEA3C0C43401FBF400713
:104920000CF1605113F0FE4F70471CF0006F03D183
:1049300000200CF0004170470CF0004343EA507037
:1049400010B540EACC0000F022F800BF0000009251
:104950004FEA0001FFF750BE4FF000414FF000005A
:10496000A1F5002170470000B0FA80F310FA03F2BD
:10497000C3F19D030AD0D90501EB1220530638BFBD
:10498000704700F1010008BF20F0010070470EF1F0
:10499000020E2EF0030E5EF8044B244204D44FEABC
:1049A0004102B2F17F4F11D84FEA4003B3F17F4F7C
:1049B0000CD80ED14FEAD07CB2F17F4F0CEB4C0CEF
:1049C0000CF1020C08BF4CEBD17C04E04FF0080C5A
:1049D00001E04FEAD17C0CEB4C0324FA03F404F021
:1049E0000704B4F1040C06D20EEB840CBDE81040B1
:1049F0004CF0010C6047DFE80CF0070802024FF0B2
:104A00000040A0F5800010BD0846420018BFD2F15A
:104A1000807288BF00F0004010BDFF2141EAD050F5
:104A2000C0057047FBF735BE010202030405060707
:104A300008090A0B0C0D0E0F1010000000000000FA
:104A4000000001020304060708090000000001023B
:104A5000030400000000000000000000000000004F
:104A60000000000000F800000000000000333000EB
:104A7000000000100C06100C0600000000000000F2
:104A8000000040C07840C0784000043F04043F0468
:104A90000400007088FC08300000001820FF211E70
:104AA0000000F008F000E018000000211C031E21A7
:104AB0001E0000F00888700000001E212324192722
:104AC000211010160E000000000000000000000081
:104AD0000000000000E01804020000000007182099
:104AE000400000020418E000000000402018070009
:104AF0000000404080F0804040000202010F0102AF
:104B00000200000000F0000000000101011F01018F
:104B10000100000000000000000080B070000000F4
:104B20000000000000000000000000010101010180
:104B30000101000000000000000000303000000013
:104B400000000000000080601804006018060100EA
:104B5000000000E010080810E000000F10202010F6
:104B60000F00001010F8000000000020203F20205F
:104B700000000070080808887000003028242221F6
:104B800030000030088888483000001820202011AC
:104B90000E000000C02010F8000000070424243F8D
:104BA000240000F808888808080000192120201136
:104BB0000E0000E0108888180000000F112020115E
:104BC0000E0000380808C83808000000003F000048
:104BD00000000070880808887000001C2221212233
:104BE0001C0000E010080810E00000003122221133
:104BF0000F00000000C0C0000000000000303000C6
:104C00000000000000800000000000008060000044
:104C1000000000008040201008000001020408107D
:104C2000200040404040404040000404040404048C
:104C3000040000081020408000000020100804023A
:104C40000100007048080808F0000000003036013C
:104C50000000C030C828E810E000071827242314FB
:104C60000B000000C038E0000000203C23020227B7
:104C7000382008F8888888700000203F2020201104
:104C80000E00C0300808080838000718202020103F
:104C9000080008F808080810E000203F2020201035
:104CA0000F0008F88888E8081000203F2020232003
:104CB000180008F88888E8081000203F200003004A
:104CC0000000C03008080838000007182020221E05
:104CD000020008F808000008F808203F210101211F
:104CE0003F20000808F8080800000020203F20208E
:104CF000000000000808F8080800C08080807F00DD
:104D0000000008F888C028180800203F2001263835
:104D1000200008F8080000000000203F202020208C
:104D2000300008F8F800F8F80800203F003F003F86
:104D3000200008F830C00008F808203F20000718BD
:104D40003F00E01008080810E0000F10202020109D
:104D50000F0008F808080808F000203F21010101B1
:104D60000000E01008080810E0000F182424385054
:104D70004F0008F8888888887000203F2000030CC6
:104D800030200070880808083800003820212122CF
:104D90001C00180808F8080818000000203F200030
:104DA000000008F808000008F808001F2020202054
:104DB0001F000878880000C83808000007380E0176
:104DC0000000F80800F80008F800033C0700073C62
:104DD0000300081868808068180820302C03032C12
:104DE00030200838C800C83808000000203F2000E4
:104DF000000010080808C8380800203826212020A4
:104E00001800000000FE020202000000007F404087
:104E10004000000C30C00000000000000001063817
:104E2000C00000020202FE000000004040407F007F
:104E30000000000004020202040000000000000064
:104E40000000000000000000000080808080808062
:104E5000808000020204000000000000000000004A
:104E6000000000008080808000000019242222229F
:104E70003F2008F8008080000000003F1120201132
:104E80000E000000008080800000000E1120202015
:104E90001100000000808088F800000E1120201012
:104EA0003F200000808080800000001F22222222FC
:104EB0001300008080F0888888180020203F202080
:104EC00000000000808080808000006B94949493A8
:104ED000600008F8008080800000203F2100002052
:104EE0003F2000809898000000000020203F2020F4
:104EF0000000000000809898000000C08080807F43
:104F0000000008F8000080808000203F24022D303F
:104F10002000000808F8000000000020203F2020AA
:104F200000008080808080808000203F20003F2023
:104F3000003F8080008080800000203F2100002012
:104F40003F200000808080800000001F2020202063
:104F50001F00808000808000000080FFA1202011C1
:104F60000E000000008080808000000E112020A034
:104F7000FF80808080008080800020203F212000F2
:104F800001000000808080808000003324242424DD
:104F90001900008080E0808000000000001F2020B9
:104FA00000008080000000808000001F2020201072
:104FB0003F20808080000080808000010E30080645
:104FC000010080800080008080800F300C030C3056
:104FD0000F0000808000808080000020312E0E3184
:104FE0002000808080000080808080818E70180684
:104FF000010000808080808080000021302C2221F0
:10500000300000000000807C020200000000003F31
:10501000404000000000FF00000000000000FF0012
:1050200000000002027C800000000040403F0000C1
:10503000000000060101020204040000000000005C
:105040000000000010080000524A00080240000062
:10505000000000A00000000005400000000000C8A3
:10506000000000000C4000000000409C0000000018
:10507000194000000020BCBE0000000034400000C9
:10508000BFC91B8E00000004B5400000504BCFD0BC
:105090006607E2CF010000006C4100003E8251AA89
:1050A000DFEEA73401000000D9420000DCB5A0E229
:1050B0003A301F97FFFFFFFFB4450000FD25A0C851
:1050C000E9A3C14FFFFFFFFFFF3F0000000000808A
:1050D00000000000FF3F0000000000800000000012
:1050E0001C510008000000201400000028010008E6
:1050F0003051000814000020E40C000044010008B6
:105100001C00000043000000F8FFFFFF0C0000003F
:105110000E0000000F0000002E0000000100000043
:10512000100000000000000000127A0000000000E3
:04000005080000ED02
:00000001FF
